{
  "_format": "hh-sol-artifact-1",
  "contractName": "MonsterRehab",
  "sourceName": "contracts/MonsterRehab.sol",
  "abi": [
    {
      "inputs": [
        {
          "internalType": "uint256",
          "name": "tokenSupplyLimit",
          "type": "uint256"
        },
        {
          "internalType": "string",
          "name": "tokenBaseUri",
          "type": "string"
        }
      ],
      "stateMutability": "nonpayable",
      "type": "constructor"
    },
    {
      "anonymous": false,
      "inputs": [
        {
          "indexed": true,
          "internalType": "address",
          "name": "owner",
          "type": "address"
        },
        {
          "indexed": true,
          "internalType": "address",
          "name": "approved",
          "type": "address"
        },
        {
          "indexed": true,
          "internalType": "uint256",
          "name": "tokenId",
          "type": "uint256"
        }
      ],
      "name": "Approval",
      "type": "event"
    },
    {
      "anonymous": false,
      "inputs": [
        {
          "indexed": true,
          "internalType": "address",
          "name": "owner",
          "type": "address"
        },
        {
          "indexed": true,
          "internalType": "address",
          "name": "operator",
          "type": "address"
        },
        {
          "indexed": false,
          "internalType": "bool",
          "name": "approved",
          "type": "bool"
        }
      ],
      "name": "ApprovalForAll",
      "type": "event"
    },
    {
      "anonymous": false,
      "inputs": [
        {
          "indexed": true,
          "internalType": "address",
          "name": "previousOwner",
          "type": "address"
        },
        {
          "indexed": true,
          "internalType": "address",
          "name": "newOwner",
          "type": "address"
        }
      ],
      "name": "OwnershipTransferred",
      "type": "event"
    },
    {
      "anonymous": false,
      "inputs": [
        {
          "indexed": true,
          "internalType": "address",
          "name": "from",
          "type": "address"
        },
        {
          "indexed": true,
          "internalType": "address",
          "name": "to",
          "type": "address"
        },
        {
          "indexed": true,
          "internalType": "uint256",
          "name": "tokenId",
          "type": "uint256"
        }
      ],
      "name": "Transfer",
      "type": "event"
    },
    {
      "inputs": [
        {
          "internalType": "address",
          "name": "to",
          "type": "address"
        },
        {
          "internalType": "uint256",
          "name": "tokenId",
          "type": "uint256"
        }
      ],
      "name": "approve",
      "outputs": [],
      "stateMutability": "nonpayable",
      "type": "function"
    },
    {
      "inputs": [
        {
          "internalType": "address",
          "name": "owner",
          "type": "address"
        }
      ],
      "name": "balanceOf",
      "outputs": [
        {
          "internalType": "uint256",
          "name": "",
          "type": "uint256"
        }
      ],
      "stateMutability": "view",
      "type": "function"
    },
    {
      "inputs": [],
      "name": "baseURI",
      "outputs": [
        {
          "internalType": "string",
          "name": "",
          "type": "string"
        }
      ],
      "stateMutability": "view",
      "type": "function"
    },
    {
      "inputs": [
        {
          "internalType": "uint256",
          "name": "numberOfTokens",
          "type": "uint256"
        }
      ],
      "name": "buyMonsters",
      "outputs": [],
      "stateMutability": "payable",
      "type": "function"
    },
    {
      "inputs": [
        {
          "internalType": "uint256",
          "name": "tokenId",
          "type": "uint256"
        }
      ],
      "name": "getApproved",
      "outputs": [
        {
          "internalType": "address",
          "name": "",
          "type": "address"
        }
      ],
      "stateMutability": "view",
      "type": "function"
    },
    {
      "inputs": [
        {
          "internalType": "address",
          "name": "owner",
          "type": "address"
        },
        {
          "internalType": "address",
          "name": "operator",
          "type": "address"
        }
      ],
      "name": "isApprovedForAll",
      "outputs": [
        {
          "internalType": "bool",
          "name": "",
          "type": "bool"
        }
      ],
      "stateMutability": "view",
      "type": "function"
    },
    {
      "inputs": [],
      "name": "mintLimit",
      "outputs": [
        {
          "internalType": "uint256",
          "name": "",
          "type": "uint256"
        }
      ],
      "stateMutability": "view",
      "type": "function"
    },
    {
      "inputs": [],
      "name": "mintPrice",
      "outputs": [
        {
          "internalType": "uint256",
          "name": "",
          "type": "uint256"
        }
      ],
      "stateMutability": "view",
      "type": "function"
    },
    {
      "inputs": [],
      "name": "name",
      "outputs": [
        {
          "internalType": "string",
          "name": "",
          "type": "string"
        }
      ],
      "stateMutability": "view",
      "type": "function"
    },
    {
      "inputs": [],
      "name": "owner",
      "outputs": [
        {
          "internalType": "address",
          "name": "",
          "type": "address"
        }
      ],
      "stateMutability": "view",
      "type": "function"
    },
    {
      "inputs": [
        {
          "internalType": "uint256",
          "name": "tokenId",
          "type": "uint256"
        }
      ],
      "name": "ownerOf",
      "outputs": [
        {
          "internalType": "address",
          "name": "",
          "type": "address"
        }
      ],
      "stateMutability": "view",
      "type": "function"
    },
    {
      "inputs": [],
      "name": "renounceOwnership",
      "outputs": [],
      "stateMutability": "nonpayable",
      "type": "function"
    },
    {
      "inputs": [
        {
          "internalType": "uint256",
          "name": "numberOfTokens",
          "type": "uint256"
        }
      ],
      "name": "reserveMonsters",
      "outputs": [],
      "stateMutability": "nonpayable",
      "type": "function"
    },
    {
      "inputs": [
        {
          "internalType": "address",
          "name": "from",
          "type": "address"
        },
        {
          "internalType": "address",
          "name": "to",
          "type": "address"
        },
        {
          "internalType": "uint256",
          "name": "tokenId",
          "type": "uint256"
        }
      ],
      "name": "safeTransferFrom",
      "outputs": [],
      "stateMutability": "nonpayable",
      "type": "function"
    },
    {
      "inputs": [
        {
          "internalType": "address",
          "name": "from",
          "type": "address"
        },
        {
          "internalType": "address",
          "name": "to",
          "type": "address"
        },
        {
          "internalType": "uint256",
          "name": "tokenId",
          "type": "uint256"
        },
        {
          "internalType": "bytes",
          "name": "_data",
          "type": "bytes"
        }
      ],
      "name": "safeTransferFrom",
      "outputs": [],
      "stateMutability": "nonpayable",
      "type": "function"
    },
    {
      "inputs": [],
      "name": "saleActive",
      "outputs": [
        {
          "internalType": "bool",
          "name": "",
          "type": "bool"
        }
      ],
      "stateMutability": "view",
      "type": "function"
    },
    {
      "inputs": [
        {
          "internalType": "address",
          "name": "operator",
          "type": "address"
        },
        {
          "internalType": "bool",
          "name": "approved",
          "type": "bool"
        }
      ],
      "name": "setApprovalForAll",
      "outputs": [],
      "stateMutability": "nonpayable",
      "type": "function"
    },
    {
      "inputs": [
        {
          "internalType": "string",
          "name": "newBaseURI",
          "type": "string"
        }
      ],
      "name": "setBaseURI",
      "outputs": [],
      "stateMutability": "nonpayable",
      "type": "function"
    },
    {
      "inputs": [],
      "name": "supplyLimit",
      "outputs": [
        {
          "internalType": "uint256",
          "name": "",
          "type": "uint256"
        }
      ],
      "stateMutability": "view",
      "type": "function"
    },
    {
      "inputs": [
        {
          "internalType": "bytes4",
          "name": "interfaceId",
          "type": "bytes4"
        }
      ],
      "name": "supportsInterface",
      "outputs": [
        {
          "internalType": "bool",
          "name": "",
          "type": "bool"
        }
      ],
      "stateMutability": "view",
      "type": "function"
    },
    {
      "inputs": [],
      "name": "symbol",
      "outputs": [
        {
          "internalType": "string",
          "name": "",
          "type": "string"
        }
      ],
      "stateMutability": "view",
      "type": "function"
    },
    {
      "inputs": [],
      "name": "toggleSaleActive",
      "outputs": [],
      "stateMutability": "nonpayable",
      "type": "function"
    },
    {
      "inputs": [
        {
          "internalType": "uint256",
          "name": "index",
          "type": "uint256"
        }
      ],
      "name": "tokenByIndex",
      "outputs": [
        {
          "internalType": "uint256",
          "name": "",
          "type": "uint256"
        }
      ],
      "stateMutability": "view",
      "type": "function"
    },
    {
      "inputs": [
        {
          "internalType": "address",
          "name": "owner",
          "type": "address"
        },
        {
          "internalType": "uint256",
          "name": "index",
          "type": "uint256"
        }
      ],
      "name": "tokenOfOwnerByIndex",
      "outputs": [
        {
          "internalType": "uint256",
          "name": "",
          "type": "uint256"
        }
      ],
      "stateMutability": "view",
      "type": "function"
    },
    {
      "inputs": [
        {
          "internalType": "uint256",
          "name": "tokenId",
          "type": "uint256"
        }
      ],
      "name": "tokenURI",
      "outputs": [
        {
          "internalType": "string",
          "name": "",
          "type": "string"
        }
      ],
      "stateMutability": "view",
      "type": "function"
    },
    {
      "inputs": [
        {
          "internalType": "address",
          "name": "wallet",
          "type": "address"
        }
      ],
      "name": "tokensOwnedBy",
      "outputs": [
        {
          "internalType": "uint256[]",
          "name": "",
          "type": "uint256[]"
        }
      ],
      "stateMutability": "view",
      "type": "function"
    },
    {
      "inputs": [],
      "name": "totalSupply",
      "outputs": [
        {
          "internalType": "uint256",
          "name": "",
          "type": "uint256"
        }
      ],
      "stateMutability": "view",
      "type": "function"
    },
    {
      "inputs": [
        {
          "internalType": "address",
          "name": "from",
          "type": "address"
        },
        {
          "internalType": "address",
          "name": "to",
          "type": "address"
        },
        {
          "internalType": "uint256",
          "name": "tokenId",
          "type": "uint256"
        }
      ],
      "name": "transferFrom",
      "outputs": [],
      "stateMutability": "nonpayable",
      "type": "function"
    },
    {
      "inputs": [
        {
          "internalType": "address",
          "name": "newOwner",
          "type": "address"
        }
      ],
      "name": "transferOwnership",
      "outputs": [],
      "stateMutability": "nonpayable",
      "type": "function"
    },
    {
      "inputs": [],
      "name": "withdraw",
      "outputs": [],
      "stateMutability": "nonpayable",
      "type": "function"
    }
  ],
  "bytecode": "0x6080604052600c805460ff191690553480156200001b57600080fd5b5060405162002b8e38038062002b8e833981810160405260408110156200004157600080fd5b8151602083018051604051929492938301929190846401000000008211156200006957600080fd5b9083019060208201858111156200007f57600080fd5b82516401000000008111828201881017156200009a57600080fd5b82525081516020918201929091019080838360005b83811015620000c9578181015183820152602001620000af565b50505050905090810190601f168015620000f75780820380516001836020036101000a031916815260200191505b506040525050506040518060400160405280600c81526020016b26b7b739ba32b92932b430b160a11b8152506040518060400160405280600781526020016626a7a729aa22a960c91b8152506000620001556200022d60201b60201c565b600080546001600160a01b0319166001600160a01b0383169081178255604051929350917f8be0079c531659141344cd1fd0a4f28419497f9722a3daafe3b4186f6b6457e0908290a350620001b16301ffc9a760e01b62000231565b8151620001c6906007906020850190620002d2565b508051620001dc906008906020840190620002d2565b50620001ef6380ac58cd60e01b62000231565b62000201635b5e139f60e01b62000231565b6200021363780e9d6360e01b62000231565b5050600b8290556200022581620002b9565b50506200037e565b3390565b6001600160e01b0319808216141562000291576040805162461bcd60e51b815260206004820152601c60248201527f4552433136353a20696e76616c696420696e7465726661636520696400000000604482015290519081900360640190fd5b6001600160e01b0319166000908152600160208190526040909120805460ff19169091179055565b8051620002ce90600a906020840190620002d2565b5050565b828054600181600116156101000203166002900490600052602060002090601f0160209004810192826200030a576000855562000355565b82601f106200032557805160ff191683800117855562000355565b8280016001018555821562000355579182015b828111156200035557825182559160200191906001019062000338565b506200036392915062000367565b5090565b5b8082111562000363576000815560010162000368565b612800806200038e6000396000f3fe6080604052600436106101cd5760003560e01c806368428a1b116100f7578063a22cb46511610095578063e681fac511610064578063e681fac514610779578063e985e9c514610796578063ea66aeb3146107d1578063f2fde38b14610854576101cd565b8063a22cb46514610617578063b88d4fde14610652578063c87b56dd14610725578063d7d4ee8b1461074f576101cd565b8063715018a6116100d1578063715018a6146105c35780638da5cb5b146105d857806395d89b41146105ed578063996517cf14610602576101cd565b806368428a1b146105665780636c0360eb1461057b57806370a0823114610590576101cd565b80632f745c591161016f5780634f6ccce71161013e5780634f6ccce71461044a57806355f804b3146104745780636352211e146105275780636817c76c14610551576101cd565b80632f745c59146103a45780633100a535146103dd5780633ccfd60b146103f257806342842e0e14610407576101cd565b8063095ea7b3116101ab578063095ea7b3146102ea57806318160ddd1461032557806319d1997a1461034c57806323b872dd14610361576101cd565b806301ffc9a7146101d257806306fdde031461021a578063081812fc146102a4575b600080fd5b3480156101de57600080fd5b50610206600480360360208110156101f557600080fd5b50356001600160e01b031916610887565b604080519115158252519081900360200190f35b34801561022657600080fd5b5061022f6108aa565b6040805160208082528351818301528351919283929083019185019080838360005b83811015610269578181015183820152602001610251565b50505050905090810190601f1680156102965780820380516001836020036101000a031916815260200191505b509250505060405180910390f35b3480156102b057600080fd5b506102ce600480360360208110156102c757600080fd5b5035610940565b604080516001600160a01b039092168252519081900360200190f35b3480156102f657600080fd5b506103236004803603604081101561030d57600080fd5b506001600160a01b0381351690602001356109a2565b005b34801561033157600080fd5b5061033a610a7d565b60408051918252519081900360200190f35b34801561035857600080fd5b5061033a610a8e565b34801561036d57600080fd5b506103236004803603606081101561038457600080fd5b506001600160a01b03813581169160208101359091169060400135610a94565b3480156103b057600080fd5b5061033a600480360360408110156103c757600080fd5b506001600160a01b038135169060200135610aeb565b3480156103e957600080fd5b50610323610b16565b3480156103fe57600080fd5b50610323610b8c565b34801561041357600080fd5b506103236004803603606081101561042a57600080fd5b506001600160a01b03813581169160208101359091169060400135610cd8565b34801561045657600080fd5b5061033a6004803603602081101561046d57600080fd5b5035610cf3565b34801561048057600080fd5b506103236004803603602081101561049757600080fd5b8101906020810181356401000000008111156104b257600080fd5b8201836020820111156104c457600080fd5b803590602001918460018302840111640100000000831117156104e657600080fd5b91908080601f016020809104026020016040519081016040528093929190818152602001838380828437600092019190915250929550610d09945050505050565b34801561053357600080fd5b506102ce6004803603602081101561054a57600080fd5b5035610d74565b34801561055d57600080fd5b5061033a610d9c565b34801561057257600080fd5b50610206610da7565b34801561058757600080fd5b5061022f610db0565b34801561059c57600080fd5b5061033a600480360360208110156105b357600080fd5b50356001600160a01b0316610e11565b3480156105cf57600080fd5b50610323610e79565b3480156105e457600080fd5b506102ce610f25565b3480156105f957600080fd5b5061022f610f34565b34801561060e57600080fd5b5061033a610f95565b34801561062357600080fd5b506103236004803603604081101561063a57600080fd5b506001600160a01b0381351690602001351515610f9a565b34801561065e57600080fd5b506103236004803603608081101561067557600080fd5b6001600160a01b038235811692602081013590911691604082013591908101906080810160608201356401000000008111156106b057600080fd5b8201836020820111156106c257600080fd5b803590602001918460018302840111640100000000831117156106e457600080fd5b91908080601f01602080910402602001604051908101604052809392919081815260200183838082843760009201919091525092955061109f945050505050565b34801561073157600080fd5b5061022f6004803603602081101561074857600080fd5b50356110fd565b34801561075b57600080fd5b506103236004803603602081101561077257600080fd5b503561137e565b6103236004803603602081101561078f57600080fd5b50356113e9565b3480156107a257600080fd5b50610206600480360360408110156107b957600080fd5b506001600160a01b03813581169160200135166114d3565b3480156107dd57600080fd5b50610804600480360360208110156107f457600080fd5b50356001600160a01b0316611501565b60408051602080825283518183015283519192839290830191858101910280838360005b83811015610840578181015183820152602001610828565b505050509050019250505060405180910390f35b34801561086057600080fd5b506103236004803603602081101561087757600080fd5b50356001600160a01b031661158a565b6001600160e01b0319811660009081526001602052604090205460ff165b919050565b60078054604080516020601f60026000196101006001881615020190951694909404938401819004810282018101909252828152606093909290918301828280156109365780601f1061090b57610100808354040283529160200191610936565b820191906000526020600020905b81548152906001019060200180831161091957829003601f168201915b5050505050905090565b600061094b8261168c565b6109865760405162461bcd60e51b815260040180806020018281038252602c8152602001806126d5602c913960400191505060405180910390fd5b506000908152600560205260409020546001600160a01b031690565b60006109ad82610d74565b9050806001600160a01b0316836001600160a01b03161415610a005760405162461bcd60e51b81526004018080602001828103825260218152602001806127796021913960400191505060405180910390fd5b806001600160a01b0316610a12611699565b6001600160a01b03161480610a335750610a3381610a2e611699565b6114d3565b610a6e5760405162461bcd60e51b81526004018080602001828103825260388152602001806126076038913960400191505060405180910390fd5b610a78838361169d565b505050565b6000610a89600361170b565b905090565b600b5481565b610aa5610a9f611699565b82611716565b610ae05760405162461bcd60e51b815260040180806020018281038252603181526020018061279a6031913960400191505060405180910390fd5b610a788383836117ba565b6001600160a01b0382166000908152600260205260408120610b0d9083611906565b90505b92915050565b610b1e611699565b6001600160a01b0316610b2f610f25565b6001600160a01b031614610b78576040805162461bcd60e51b81526020600482018190526024820152600080516020612701833981519152604482015290519081900360640190fd5b600c805460ff19811660ff90911615179055565b610b94611699565b6001600160a01b0316610ba5610f25565b6001600160a01b031614610bee576040805162461bcd60e51b81526020600482018190526024820152600080516020612701833981519152604482015290519081900360640190fd5b60004711610c43576040805162461bcd60e51b815260206004820152601760248201527f4e6f2062616c616e636520746f2077697468647261772e000000000000000000604482015290519081900360640190fd5b604051600090339047908381818185875af1925050503d8060008114610c85576040519150601f19603f3d011682016040523d82523d6000602084013e610c8a565b606091505b5050905080610cd5576040805162461bcd60e51b81526020600482015260126024820152712bb4ba34323930bbb0b6103330b4b632b21760711b604482015290519081900360640190fd5b50565b610a788383836040518060200160405280600081525061109f565b600080610d01600384611912565b509392505050565b610d11611699565b6001600160a01b0316610d22610f25565b6001600160a01b031614610d6b576040805162461bcd60e51b81526020600482018190526024820152600080516020612701833981519152604482015290519081900360640190fd5b610cd58161192e565b6000610b10826040518060600160405280602981526020016126696029913960039190611945565b66f8b0a10e47000081565b600c5460ff1681565b600a8054604080516020601f60026000196101006001881615020190951694909404938401819004810282018101909252828152606093909290918301828280156109365780601f1061090b57610100808354040283529160200191610936565b60006001600160a01b038216610e585760405162461bcd60e51b815260040180806020018281038252602a81526020018061263f602a913960400191505060405180910390fd5b6001600160a01b0382166000908152600260205260409020610b109061170b565b610e81611699565b6001600160a01b0316610e92610f25565b6001600160a01b031614610edb576040805162461bcd60e51b81526020600482018190526024820152600080516020612701833981519152604482015290519081900360640190fd5b600080546040516001600160a01b03909116907f8be0079c531659141344cd1fd0a4f28419497f9722a3daafe3b4186f6b6457e0908390a3600080546001600160a01b0319169055565b6000546001600160a01b031690565b60088054604080516020601f60026000196101006001881615020190951694909404938401819004810282018101909252828152606093909290918301828280156109365780601f1061090b57610100808354040283529160200191610936565b601481565b610fa2611699565b6001600160a01b0316826001600160a01b03161415611008576040805162461bcd60e51b815260206004820152601960248201527f4552433732313a20617070726f766520746f2063616c6c657200000000000000604482015290519081900360640190fd5b8060066000611015611699565b6001600160a01b03908116825260208083019390935260409182016000908120918716808252919093529120805460ff191692151592909217909155611059611699565b6001600160a01b03167f17307eab39ab6107e8899845ad3d59bd9653f200f220920489ca2b5937696c318360405180821515815260200191505060405180910390a35050565b6110b06110aa611699565b83611716565b6110eb5760405162461bcd60e51b815260040180806020018281038252603181526020018061279a6031913960400191505060405180910390fd5b6110f78484848461195c565b50505050565b60606111088261168c565b6111435760405162461bcd60e51b815260040180806020018281038252602f81526020018061274a602f913960400191505060405180910390fd5b60008281526009602090815260408083208054825160026001831615610100026000190190921691909104601f8101859004850282018501909352828152929091908301828280156111d65780601f106111ab576101008083540402835291602001916111d6565b820191906000526020600020905b8154815290600101906020018083116111b957829003601f168201915b5050505050905060006111e7610db0565b90508051600014156111fb575090506108a5565b8151156112bc5780826040516020018083805190602001908083835b602083106112365780518252601f199092019160209182019101611217565b51815160209384036101000a600019018019909216911617905285519190930192850191508083835b6020831061127e5780518252601f19909201916020918201910161125f565b6001836020036101000a03801982511681845116808217855250505050505090500192505050604051602081830303815290604052925050506108a5565b806112c6856119ae565b6040516020018083805190602001908083835b602083106112f85780518252601f1990920191602091820191016112d9565b51815160209384036101000a600019018019909216911617905285519190930192850191508083835b602083106113405780518252601f199092019160209182019101611321565b6001836020036101000a0380198251168184511680821785525050505050509050019250505060405160208183030381529060405292505050919050565b611386611699565b6001600160a01b0316611397610f25565b6001600160a01b0316146113e0576040805162461bcd60e51b81526020600482018190526024820152600080516020612701833981519152604482015290519081900360640190fd5b610cd581611a89565b600c5460ff16611436576040805162461bcd60e51b815260206004820152601360248201527229b0b6329034b9903737ba1030b1ba34bb329760691b604482015290519081900360640190fd5b60148111156114765760405162461bcd60e51b815260040180806020018281038252602481526020018061256d6024913960400191505060405180910390fd5b61148766f8b0a10e47000082611b20565b3410156113e0576040805162461bcd60e51b815260206004820152601560248201527424b739bab33334b1b4b2b73a103830bcb6b2b73a1760591b604482015290519081900360640190fd5b6001600160a01b03918216600090815260066020908152604080832093909416825291909152205460ff1690565b6060600061150e83610e11565b905060008167ffffffffffffffff8111801561152957600080fd5b50604051908082528060200260200182016040528015611553578160200160208202803683370190505b50905060005b82811015610d015761156b8582610aeb565b82828151811061157757fe5b6020908102919091010152600101611559565b611592611699565b6001600160a01b03166115a3610f25565b6001600160a01b0316146115ec576040805162461bcd60e51b81526020600482018190526024820152600080516020612701833981519152604482015290519081900360640190fd5b6001600160a01b0381166116315760405162461bcd60e51b81526004018080602001828103825260268152602001806125476026913960400191505060405180910390fd5b600080546040516001600160a01b03808516939216917f8be0079c531659141344cd1fd0a4f28419497f9722a3daafe3b4186f6b6457e091a3600080546001600160a01b0319166001600160a01b0392909216919091179055565b6000610b10600383611b79565b3390565b600081815260056020526040902080546001600160a01b0319166001600160a01b03841690811790915581906116d282610d74565b6001600160a01b03167f8c5be1e5ebec7d5bd14f71427d1e84f3dd0314c0f7b2291e5b200ac8c7c3b92560405160405180910390a45050565b6000610b1082611b85565b60006117218261168c565b61175c5760405162461bcd60e51b815260040180806020018281038252602c8152602001806125db602c913960400191505060405180910390fd5b600061176783610d74565b9050806001600160a01b0316846001600160a01b031614806117a25750836001600160a01b031661179784610940565b6001600160a01b0316145b806117b257506117b281856114d3565b949350505050565b826001600160a01b03166117cd82610d74565b6001600160a01b0316146118125760405162461bcd60e51b81526004018080602001828103825260298152602001806127216029913960400191505060405180910390fd5b6001600160a01b0382166118575760405162461bcd60e51b81526004018080602001828103825260248152602001806125916024913960400191505060405180910390fd5b611862838383610a78565b61186d60008261169d565b6001600160a01b038316600090815260026020526040902061188f9082611b89565b506001600160a01b03821660009081526002602052604090206118b29082611b95565b506118bf60038284611ba1565b5080826001600160a01b0316846001600160a01b03167fddf252ad1be2c89b69c2b068fc378daa952ba7f163c4a11628f55a4df523b3ef60405160405180910390a4505050565b6000610b0d8383611bb7565b60008080806119218686611c1b565b9097909650945050505050565b805161194190600a906020840190612451565b5050565b6000611952848484611c96565b90505b9392505050565b6119678484846117ba565b61197384848484611d60565b6110f75760405162461bcd60e51b81526004018080602001828103825260328152602001806125156032913960400191505060405180910390fd5b6060816119d357506040805180820190915260018152600360fc1b60208201526108a5565b8160005b81156119eb57600101600a820491506119d7565b60008167ffffffffffffffff81118015611a0457600080fd5b506040519080825280601f01601f191660200182016040528015611a2f576020820181803683370190505b50859350905060001982015b8315611a8057600a840660300160f81b82828060019003935081518110611a5e57fe5b60200101906001600160f81b031916908160001a905350600a84049350611a3b565b50949350505050565b600b54611a9e82611a98610a7d565b90611ec8565b1115611af1576040805162461bcd60e51b815260206004820152601760248201527f4e6f7420656e6f75676820746f6b656e73206c6566742e000000000000000000604482015290519081900360640190fd5b6000611afb610a7d565b905060005b82811015610a7857600182019150611b183383611f22565b600101611b00565b600082611b2f57506000610b10565b82820282848281611b3c57fe5b0414610b0d5760405162461bcd60e51b81526004018080602001828103825260218152602001806126b46021913960400191505060405180910390fd5b6000610b0d8383611f3c565b5490565b6000610b0d8383611f54565b6000610b0d838361201a565b600061195284846001600160a01b038516612064565b81546000908210611bf95760405162461bcd60e51b81526004018080602001828103825260228152602001806124f36022913960400191505060405180910390fd5b826000018281548110611c0857fe5b9060005260206000200154905092915050565b815460009081908310611c5f5760405162461bcd60e51b81526004018080602001828103825260228152602001806126926022913960400191505060405180910390fd5b6000846000018481548110611c7057fe5b906000526020600020906002020190508060000154816001015492509250509250929050565b60008281526001840160205260408120548281611d315760405162461bcd60e51b81526004018080602001828103825283818151815260200191508051906020019080838360005b83811015611cf6578181015183820152602001611cde565b50505050905090810190601f168015611d235780820380516001836020036101000a031916815260200191505b509250505060405180910390fd5b50846000016001820381548110611d4457fe5b9060005260206000209060020201600101549150509392505050565b6000611d74846001600160a01b03166120fb565b611d80575060016117b2565b6000611e8e630a85bd0160e11b611d95611699565b88878760405160240180856001600160a01b03168152602001846001600160a01b0316815260200183815260200180602001828103825283818151815260200191508051906020019080838360005b83811015611dfc578181015183820152602001611de4565b50505050905090810190601f168015611e295780820380516001836020036101000a031916815260200191505b5095505050505050604051602081830303815290604052906001600160e01b0319166020820180516001600160e01b038381831617835250505050604051806060016040528060328152602001612515603291396001600160a01b0388169190612101565b90506000818060200190516020811015611ea757600080fd5b50516001600160e01b031916630a85bd0160e11b1492505050949350505050565b600082820183811015610b0d576040805162461bcd60e51b815260206004820152601b60248201527f536166654d6174683a206164646974696f6e206f766572666c6f770000000000604482015290519081900360640190fd5b611941828260405180602001604052806000815250612110565b60009081526001919091016020526040902054151590565b600081815260018301602052604081205480156120105783546000198083019190810190600090879083908110611f8757fe5b9060005260206000200154905080876000018481548110611fa457fe5b600091825260208083209091019290925582815260018981019092526040902090840190558654879080611fd457fe5b60019003818190600052602060002001600090559055866001016000878152602001908152602001600020600090556001945050505050610b10565b6000915050610b10565b60006120268383611f3c565b61205c57508154600181810184556000848152602080822090930184905584548482528286019093526040902091909155610b10565b506000610b10565b6000828152600184016020526040812054806120c9575050604080518082018252838152602080820184815286546001818101895560008981528481209551600290930290950191825591519082015586548684528188019092529290912055611955565b828560000160018303815481106120dc57fe5b9060005260206000209060020201600101819055506000915050611955565b3b151590565b60606119528484600085612162565b61211a83836122bd565b6121276000848484611d60565b610a785760405162461bcd60e51b81526004018080602001828103825260328152602001806125156032913960400191505060405180910390fd5b6060824710156121a35760405162461bcd60e51b81526004018080602001828103825260268152602001806125b56026913960400191505060405180910390fd5b6121ac856120fb565b6121fd576040805162461bcd60e51b815260206004820152601d60248201527f416464726573733a2063616c6c20746f206e6f6e2d636f6e7472616374000000604482015290519081900360640190fd5b600080866001600160a01b031685876040518082805190602001908083835b6020831061223b5780518252601f19909201916020918201910161221c565b6001836020036101000a03801982511681845116808217855250505050505090500191505060006040518083038185875af1925050503d806000811461229d576040519150601f19603f3d011682016040523d82523d6000602084013e6122a2565b606091505b50915091506122b28282866123eb565b979650505050505050565b6001600160a01b038216612318576040805162461bcd60e51b815260206004820181905260248201527f4552433732313a206d696e7420746f20746865207a65726f2061646472657373604482015290519081900360640190fd5b6123218161168c565b15612373576040805162461bcd60e51b815260206004820152601c60248201527f4552433732313a20746f6b656e20616c7265616479206d696e74656400000000604482015290519081900360640190fd5b61237f60008383610a78565b6001600160a01b03821660009081526002602052604090206123a19082611b95565b506123ae60038284611ba1565b5060405181906001600160a01b038416906000907fddf252ad1be2c89b69c2b068fc378daa952ba7f163c4a11628f55a4df523b3ef908290a45050565b606083156123fa575081611955565b82511561240a5782518084602001fd5b60405162461bcd60e51b8152602060048201818152845160248401528451859391928392604401919085019080838360008315611cf6578181015183820152602001611cde565b828054600181600116156101000203166002900490600052602060002090601f01602090048101928261248757600085556124cd565b82601f106124a057805160ff19168380011785556124cd565b828001600101855582156124cd579182015b828111156124cd5782518255916020019190600101906124b2565b506124d99291506124dd565b5090565b5b808211156124d957600081556001016124de56fe456e756d657261626c655365743a20696e646578206f7574206f6620626f756e64734552433732313a207472616e7366657220746f206e6f6e20455243373231526563656976657220696d706c656d656e7465724f776e61626c653a206e6577206f776e657220697320746865207a65726f2061646472657373546f6f206d616e7920746f6b656e7320666f72206f6e65207472616e73616374696f6e2e4552433732313a207472616e7366657220746f20746865207a65726f2061646472657373416464726573733a20696e73756666696369656e742062616c616e636520666f722063616c6c4552433732313a206f70657261746f7220717565727920666f72206e6f6e6578697374656e7420746f6b656e4552433732313a20617070726f76652063616c6c6572206973206e6f74206f776e6572206e6f7220617070726f76656420666f7220616c6c4552433732313a2062616c616e636520717565727920666f7220746865207a65726f20616464726573734552433732313a206f776e657220717565727920666f72206e6f6e6578697374656e7420746f6b656e456e756d657261626c654d61703a20696e646578206f7574206f6620626f756e6473536166654d6174683a206d756c7469706c69636174696f6e206f766572666c6f774552433732313a20617070726f76656420717565727920666f72206e6f6e6578697374656e7420746f6b656e4f776e61626c653a2063616c6c6572206973206e6f7420746865206f776e65724552433732313a207472616e73666572206f6620746f6b656e2074686174206973206e6f74206f776e4552433732314d657461646174613a2055524920717565727920666f72206e6f6e6578697374656e7420746f6b656e4552433732313a20617070726f76616c20746f2063757272656e74206f776e65724552433732313a207472616e736665722063616c6c6572206973206e6f74206f776e6572206e6f7220617070726f766564a2646970667358221220c8efc33cd247a6d71d13923b3222a52d7935292bcc385f055ce31a8e717fe04164736f6c63430007060033",
  "linkReferences": {},
  "deployedLinkReferences": {}
}