{
  "_format": "hh-sol-artifact-1",
  "contractName": "TestnetCamels",
  "sourceName": "contracts/TestnetCamels.sol",
  "abi": [
    {
      "inputs": [],
      "stateMutability": "nonpayable",
      "type": "constructor"
    },
    {
      "anonymous": false,
      "inputs": [
        {
          "indexed": true,
          "internalType": "address",
          "name": "owner",
          "type": "address"
        },
        {
          "indexed": true,
          "internalType": "address",
          "name": "approved",
          "type": "address"
        },
        {
          "indexed": true,
          "internalType": "uint256",
          "name": "tokenId",
          "type": "uint256"
        }
      ],
      "name": "Approval",
      "type": "event"
    },
    {
      "anonymous": false,
      "inputs": [
        {
          "indexed": true,
          "internalType": "address",
          "name": "owner",
          "type": "address"
        },
        {
          "indexed": true,
          "internalType": "address",
          "name": "operator",
          "type": "address"
        },
        {
          "indexed": false,
          "internalType": "bool",
          "name": "approved",
          "type": "bool"
        }
      ],
      "name": "ApprovalForAll",
      "type": "event"
    },
    {
      "anonymous": false,
      "inputs": [
        {
          "indexed": true,
          "internalType": "address",
          "name": "previousOwner",
          "type": "address"
        },
        {
          "indexed": true,
          "internalType": "address",
          "name": "newOwner",
          "type": "address"
        }
      ],
      "name": "OwnershipTransferred",
      "type": "event"
    },
    {
      "anonymous": false,
      "inputs": [
        {
          "indexed": true,
          "internalType": "address",
          "name": "from",
          "type": "address"
        },
        {
          "indexed": true,
          "internalType": "address",
          "name": "to",
          "type": "address"
        },
        {
          "indexed": true,
          "internalType": "uint256",
          "name": "tokenId",
          "type": "uint256"
        }
      ],
      "name": "Transfer",
      "type": "event"
    },
    {
      "inputs": [
        {
          "internalType": "address",
          "name": "to",
          "type": "address"
        },
        {
          "internalType": "uint256",
          "name": "tokenId",
          "type": "uint256"
        }
      ],
      "name": "approve",
      "outputs": [],
      "stateMutability": "nonpayable",
      "type": "function"
    },
    {
      "inputs": [
        {
          "internalType": "address",
          "name": "owner",
          "type": "address"
        }
      ],
      "name": "balanceOf",
      "outputs": [
        {
          "internalType": "uint256",
          "name": "",
          "type": "uint256"
        }
      ],
      "stateMutability": "view",
      "type": "function"
    },
    {
      "inputs": [],
      "name": "baseURI",
      "outputs": [
        {
          "internalType": "string",
          "name": "",
          "type": "string"
        }
      ],
      "stateMutability": "view",
      "type": "function"
    },
    {
      "inputs": [
        {
          "internalType": "uint256",
          "name": "tokenId",
          "type": "uint256"
        }
      ],
      "name": "getApproved",
      "outputs": [
        {
          "internalType": "address",
          "name": "",
          "type": "address"
        }
      ],
      "stateMutability": "view",
      "type": "function"
    },
    {
      "inputs": [
        {
          "internalType": "address",
          "name": "owner",
          "type": "address"
        },
        {
          "internalType": "address",
          "name": "operator",
          "type": "address"
        }
      ],
      "name": "isApprovedForAll",
      "outputs": [
        {
          "internalType": "bool",
          "name": "",
          "type": "bool"
        }
      ],
      "stateMutability": "view",
      "type": "function"
    },
    {
      "inputs": [],
      "name": "mintPiece",
      "outputs": [],
      "stateMutability": "nonpayable",
      "type": "function"
    },
    {
      "inputs": [],
      "name": "name",
      "outputs": [
        {
          "internalType": "string",
          "name": "",
          "type": "string"
        }
      ],
      "stateMutability": "view",
      "type": "function"
    },
    {
      "inputs": [],
      "name": "owner",
      "outputs": [
        {
          "internalType": "address",
          "name": "",
          "type": "address"
        }
      ],
      "stateMutability": "view",
      "type": "function"
    },
    {
      "inputs": [
        {
          "internalType": "uint256",
          "name": "tokenId",
          "type": "uint256"
        }
      ],
      "name": "ownerOf",
      "outputs": [
        {
          "internalType": "address",
          "name": "",
          "type": "address"
        }
      ],
      "stateMutability": "view",
      "type": "function"
    },
    {
      "inputs": [],
      "name": "renounceOwnership",
      "outputs": [],
      "stateMutability": "nonpayable",
      "type": "function"
    },
    {
      "inputs": [
        {
          "internalType": "address",
          "name": "from",
          "type": "address"
        },
        {
          "internalType": "address",
          "name": "to",
          "type": "address"
        },
        {
          "internalType": "uint256",
          "name": "tokenId",
          "type": "uint256"
        }
      ],
      "name": "safeTransferFrom",
      "outputs": [],
      "stateMutability": "nonpayable",
      "type": "function"
    },
    {
      "inputs": [
        {
          "internalType": "address",
          "name": "from",
          "type": "address"
        },
        {
          "internalType": "address",
          "name": "to",
          "type": "address"
        },
        {
          "internalType": "uint256",
          "name": "tokenId",
          "type": "uint256"
        },
        {
          "internalType": "bytes",
          "name": "_data",
          "type": "bytes"
        }
      ],
      "name": "safeTransferFrom",
      "outputs": [],
      "stateMutability": "nonpayable",
      "type": "function"
    },
    {
      "inputs": [
        {
          "internalType": "address",
          "name": "operator",
          "type": "address"
        },
        {
          "internalType": "bool",
          "name": "approved",
          "type": "bool"
        }
      ],
      "name": "setApprovalForAll",
      "outputs": [],
      "stateMutability": "nonpayable",
      "type": "function"
    },
    {
      "inputs": [
        {
          "internalType": "bytes4",
          "name": "interfaceId",
          "type": "bytes4"
        }
      ],
      "name": "supportsInterface",
      "outputs": [
        {
          "internalType": "bool",
          "name": "",
          "type": "bool"
        }
      ],
      "stateMutability": "view",
      "type": "function"
    },
    {
      "inputs": [],
      "name": "symbol",
      "outputs": [
        {
          "internalType": "string",
          "name": "",
          "type": "string"
        }
      ],
      "stateMutability": "view",
      "type": "function"
    },
    {
      "inputs": [
        {
          "internalType": "uint256",
          "name": "index",
          "type": "uint256"
        }
      ],
      "name": "tokenByIndex",
      "outputs": [
        {
          "internalType": "uint256",
          "name": "",
          "type": "uint256"
        }
      ],
      "stateMutability": "view",
      "type": "function"
    },
    {
      "inputs": [
        {
          "internalType": "address",
          "name": "owner",
          "type": "address"
        },
        {
          "internalType": "uint256",
          "name": "index",
          "type": "uint256"
        }
      ],
      "name": "tokenOfOwnerByIndex",
      "outputs": [
        {
          "internalType": "uint256",
          "name": "",
          "type": "uint256"
        }
      ],
      "stateMutability": "view",
      "type": "function"
    },
    {
      "inputs": [
        {
          "internalType": "uint256",
          "name": "tokenId",
          "type": "uint256"
        }
      ],
      "name": "tokenURI",
      "outputs": [
        {
          "internalType": "string",
          "name": "",
          "type": "string"
        }
      ],
      "stateMutability": "view",
      "type": "function"
    },
    {
      "inputs": [],
      "name": "totalSupply",
      "outputs": [
        {
          "internalType": "uint256",
          "name": "",
          "type": "uint256"
        }
      ],
      "stateMutability": "view",
      "type": "function"
    },
    {
      "inputs": [
        {
          "internalType": "address",
          "name": "from",
          "type": "address"
        },
        {
          "internalType": "address",
          "name": "to",
          "type": "address"
        },
        {
          "internalType": "uint256",
          "name": "tokenId",
          "type": "uint256"
        }
      ],
      "name": "transferFrom",
      "outputs": [],
      "stateMutability": "nonpayable",
      "type": "function"
    },
    {
      "inputs": [
        {
          "internalType": "address",
          "name": "newOwner",
          "type": "address"
        }
      ],
      "name": "transferOwnership",
      "outputs": [],
      "stateMutability": "nonpayable",
      "type": "function"
    }
  ],
  "bytecode": "0x60806040523480156200001157600080fd5b506040518060400160405280600d81526020016c546573746e657443616d656c7360981b815250604051806040016040528060068152602001651510d053515360d21b8152506000620000696200012f60201b60201c565b600080546001600160a01b0319166001600160a01b0383169081178255604051929350917f8be0079c531659141344cd1fd0a4f28419497f9722a3daafe3b4186f6b6457e0908290a350620000c56301ffc9a760e01b62000133565b8151620000da906007906020850190620001bb565b508051620000f0906008906020840190620001bb565b50620001036380ac58cd60e01b62000133565b62000115635b5e139f60e01b62000133565b6200012763780e9d6360e01b62000133565b505062000267565b3390565b6001600160e01b0319808216141562000193576040805162461bcd60e51b815260206004820152601c60248201527f4552433136353a20696e76616c696420696e7465726661636520696400000000604482015290519081900360640190fd5b6001600160e01b0319166000908152600160208190526040909120805460ff19169091179055565b828054600181600116156101000203166002900490600052602060002090601f016020900481019282620001f357600085556200023e565b82601f106200020e57805160ff19168380011785556200023e565b828001600101855582156200023e579182015b828111156200023e57825182559160200191906001019062000221565b506200024c92915062000250565b5090565b5b808211156200024c576000815560010162000251565b611d7780620002776000396000f3fe608060405234801561001057600080fd5b50600436106101075760003560e01c806301ffc9a71461010c57806306fdde0314610147578063081812fc146101c4578063095ea7b3146101fd57806318160ddd1461022b57806323b872dd146102455780632f745c591461027b578063378762e6146102a757806342842e0e146102af5780634f6ccce7146102e55780636352211e146103025780636c0360eb1461031f57806370a0823114610327578063715018a61461034d5780638da5cb5b1461035557806395d89b411461035d578063a22cb46514610365578063b88d4fde14610393578063c87b56dd14610457578063e985e9c514610474578063f2fde38b146104a2575b600080fd5b6101336004803603602081101561012257600080fd5b50356001600160e01b0319166104c8565b604080519115158252519081900360200190f35b61014f6104eb565b6040805160208082528351818301528351919283929083019185019080838360005b83811015610189578181015183820152602001610171565b50505050905090810190601f1680156101b65780820380516001836020036101000a031916815260200191505b509250505060405180910390f35b6101e1600480360360208110156101da57600080fd5b5035610581565b604080516001600160a01b039092168252519081900360200190f35b6102296004803603604081101561021357600080fd5b506001600160a01b0381351690602001356105e3565b005b6102336106be565b60408051918252519081900360200190f35b6102296004803603606081101561025b57600080fd5b506001600160a01b038135811691602081013590911690604001356106cf565b6102336004803603604081101561029157600080fd5b506001600160a01b038135169060200135610726565b610229610751565b610229600480360360608110156102c557600080fd5b506001600160a01b0381358116916020810135909116906040013561076d565b610233600480360360208110156102fb57600080fd5b5035610788565b6101e16004803603602081101561031857600080fd5b503561079e565b61014f6107c6565b6102336004803603602081101561033d57600080fd5b50356001600160a01b0316610827565b61022961088f565b6101e1610929565b61014f610938565b6102296004803603604081101561037b57600080fd5b506001600160a01b0381351690602001351515610999565b610229600480360360808110156103a957600080fd5b6001600160a01b03823581169260208101359091169160408201359190810190608081016060820135600160201b8111156103e357600080fd5b8201836020820111156103f557600080fd5b803590602001918460018302840111600160201b8311171561041657600080fd5b91908080601f016020809104026020016040519081016040528093929190818152602001838380828437600092019190915250929550610a9a945050505050565b61014f6004803603602081101561046d57600080fd5b5035610af8565b6101336004803603604081101561048a57600080fd5b506001600160a01b0381358116916020013516610d79565b610229600480360360208110156104b857600080fd5b50356001600160a01b0316610da7565b6001600160e01b0319811660009081526001602052604090205460ff165b919050565b60078054604080516020601f60026000196101006001881615020190951694909404938401819004810282018101909252828152606093909290918301828280156105775780601f1061054c57610100808354040283529160200191610577565b820191906000526020600020905b81548152906001019060200180831161055a57829003601f168201915b5050505050905090565b600061058c82610e97565b6105c75760405162461bcd60e51b815260040180806020018281038252602c815260200180611c0c602c913960400191505060405180910390fd5b506000908152600560205260409020546001600160a01b031690565b60006105ee8261079e565b9050806001600160a01b0316836001600160a01b031614156106415760405162461bcd60e51b8152600401808060200182810382526021815260200180611cf06021913960400191505060405180910390fd5b806001600160a01b0316610653610ea4565b6001600160a01b0316148061067457506106748161066f610ea4565b610d79565b6106af5760405162461bcd60e51b8152600401808060200182810382526038815260200180611b5f6038913960400191505060405180910390fd5b6106b98383610ea8565b505050565b60006106ca6003610f16565b905090565b6106e06106da610ea4565b82610f21565b61071b5760405162461bcd60e51b8152600401808060200182810382526031815260200180611d116031913960400191505060405180910390fd5b6106b9838383610fc5565b6001600160a01b038216600090815260026020526040812061074890836110ff565b90505b92915050565b600061075b6106be565b600101905061076a338261110b565b50565b6106b983838360405180602001604052806000815250610a9a565b600080610796600384611129565b509392505050565b600061074b82604051806060016040528060298152602001611bc16029913960039190611145565b600a8054604080516020601f60026000196101006001881615020190951694909404938401819004810282018101909252828152606093909290918301828280156105775780601f1061054c57610100808354040283529160200191610577565b60006001600160a01b03821661086e5760405162461bcd60e51b815260040180806020018281038252602a815260200180611b97602a913960400191505060405180910390fd5b6001600160a01b038216600090815260026020526040902061074b90610f16565b610897610ea4565b6001600160a01b03166108a8610929565b6001600160a01b0316146108f1576040805162461bcd60e51b81526020600482018190526024820152600080516020611c38833981519152604482015290519081900360640190fd5b600080546040516001600160a01b0390911690600080516020611c58833981519152908390a3600080546001600160a01b0319169055565b6000546001600160a01b031690565b60088054604080516020601f60026000196101006001881615020190951694909404938401819004810282018101909252828152606093909290918301828280156105775780601f1061054c57610100808354040283529160200191610577565b6109a1610ea4565b6001600160a01b0316826001600160a01b03161415610a03576040805162461bcd60e51b815260206004820152601960248201527822a9219b99189d1030b8383937bb32903a379031b0b63632b960391b604482015290519081900360640190fd5b8060066000610a10610ea4565b6001600160a01b03908116825260208083019390935260409182016000908120918716808252919093529120805460ff191692151592909217909155610a54610ea4565b6001600160a01b03167f17307eab39ab6107e8899845ad3d59bd9653f200f220920489ca2b5937696c318360405180821515815260200191505060405180910390a35050565b610aab610aa5610ea4565b83610f21565b610ae65760405162461bcd60e51b8152600401808060200182810382526031815260200180611d116031913960400191505060405180910390fd5b610af28484848461115c565b50505050565b6060610b0382610e97565b610b3e5760405162461bcd60e51b815260040180806020018281038252602f815260200180611ca1602f913960400191505060405180910390fd5b60008281526009602090815260408083208054825160026001831615610100026000190190921691909104601f810185900485028201850190935282815292909190830182828015610bd15780601f10610ba657610100808354040283529160200191610bd1565b820191906000526020600020905b815481529060010190602001808311610bb457829003601f168201915b505050505090506000610be26107c6565b9050805160001415610bf6575090506104e6565b815115610cb75780826040516020018083805190602001908083835b60208310610c315780518252601f199092019160209182019101610c12565b51815160209384036101000a600019018019909216911617905285519190930192850191508083835b60208310610c795780518252601f199092019160209182019101610c5a565b6001836020036101000a03801982511681845116808217855250505050505090500192505050604051602081830303815290604052925050506104e6565b80610cc1856111ae565b6040516020018083805190602001908083835b60208310610cf35780518252601f199092019160209182019101610cd4565b51815160209384036101000a600019018019909216911617905285519190930192850191508083835b60208310610d3b5780518252601f199092019160209182019101610d1c565b6001836020036101000a0380198251168184511680821785525050505050509050019250505060405160208183030381529060405292505050919050565b6001600160a01b03918216600090815260066020908152604080832093909416825291909152205460ff1690565b610daf610ea4565b6001600160a01b0316610dc0610929565b6001600160a01b031614610e09576040805162461bcd60e51b81526020600482018190526024820152600080516020611c38833981519152604482015290519081900360640190fd5b6001600160a01b038116610e4e5760405162461bcd60e51b8152600401808060200182810382526026815260200180611ae96026913960400191505060405180910390fd5b600080546040516001600160a01b0380851693921691600080516020611c5883398151915291a3600080546001600160a01b0319166001600160a01b0392909216919091179055565b600061074b600383611288565b3390565b600081815260056020526040902080546001600160a01b0319166001600160a01b0384169081179091558190610edd8261079e565b6001600160a01b03167f8c5be1e5ebec7d5bd14f71427d1e84f3dd0314c0f7b2291e5b200ac8c7c3b92560405160405180910390a45050565b600061074b82611294565b6000610f2c82610e97565b610f675760405162461bcd60e51b815260040180806020018281038252602c815260200180611b33602c913960400191505060405180910390fd5b6000610f728361079e565b9050806001600160a01b0316846001600160a01b03161480610fad5750836001600160a01b0316610fa284610581565b6001600160a01b0316145b80610fbd5750610fbd8185610d79565b949350505050565b826001600160a01b0316610fd88261079e565b6001600160a01b03161461101d5760405162461bcd60e51b8152600401808060200182810382526029815260200180611c786029913960400191505060405180910390fd5b6001600160a01b0382166110625760405162461bcd60e51b8152600401808060200182810382526024815260200180611b0f6024913960400191505060405180910390fd5b61106d8383836106b9565b611078600082610ea8565b6001600160a01b038316600090815260026020526040902061109a9082611298565b506001600160a01b03821660009081526002602052604090206110bd90826112a4565b506110ca600382846112b0565b5080826001600160a01b0316846001600160a01b0316600080516020611cd083398151915260405160405180910390a4505050565b600061074883836112c6565b61112582826040518060200160405280600081525061132a565b5050565b6000808080611138868661137c565b9097909650945050505050565b60006111528484846113f7565b90505b9392505050565b611167848484610fc5565b611173848484846114c1565b610af25760405162461bcd60e51b8152600401808060200182810382526032815260200180611ab76032913960400191505060405180910390fd5b6060816111d357506040805180820190915260018152600360fc1b60208201526104e6565b8160005b81156111eb57600101600a820491506111d7565b6000816001600160401b038111801561120357600080fd5b506040519080825280601f01601f19166020018201604052801561122e576020820181803683370190505b50859350905060001982015b831561127f57600a840660300160f81b8282806001900393508151811061125d57fe5b60200101906001600160f81b031916908160001a905350600a8404935061123a565b50949350505050565b60006107488383611629565b5490565b60006107488383611641565b60006107488383611707565b600061115284846001600160a01b038516611751565b815460009082106113085760405162461bcd60e51b8152600401808060200182810382526022815260200180611a956022913960400191505060405180910390fd5b82600001828154811061131757fe5b9060005260206000200154905092915050565b61133483836117e8565b61134160008484846114c1565b6106b95760405162461bcd60e51b8152600401808060200182810382526032815260200180611ab76032913960400191505060405180910390fd5b8154600090819083106113c05760405162461bcd60e51b8152600401808060200182810382526022815260200180611bea6022913960400191505060405180910390fd5b60008460000184815481106113d157fe5b906000526020600020906002020190508060000154816001015492509250509250929050565b600082815260018401602052604081205482816114925760405162461bcd60e51b81526004018080602001828103825283818151815260200191508051906020019080838360005b8381101561145757818101518382015260200161143f565b50505050905090810190601f1680156114845780820380516001836020036101000a031916815260200191505b509250505060405180910390fd5b508460000160018203815481106114a557fe5b9060005260206000209060020201600101549150509392505050565b60006114d5846001600160a01b0316611903565b6114e157506001610fbd565b60006115ef630a85bd0160e11b6114f6610ea4565b88878760405160240180856001600160a01b03168152602001846001600160a01b0316815260200183815260200180602001828103825283818151815260200191508051906020019080838360005b8381101561155d578181015183820152602001611545565b50505050905090810190601f16801561158a5780820380516001836020036101000a031916815260200191505b5095505050505050604051602081830303815290604052906001600160e01b0319166020820180516001600160e01b038381831617835250505050604051806060016040528060328152602001611ab7603291396001600160a01b0388169190611909565b9050600081806020019051602081101561160857600080fd5b50516001600160e01b031916630a85bd0160e11b1492505050949350505050565b60009081526001919091016020526040902054151590565b600081815260018301602052604081205480156116fd578354600019808301919081019060009087908390811061167457fe5b906000526020600020015490508087600001848154811061169157fe5b6000918252602080832090910192909255828152600189810190925260409020908401905586548790806116c157fe5b6001900381819060005260206000200160009055905586600101600087815260200190815260200160002060009055600194505050505061074b565b600091505061074b565b60006117138383611629565b6117495750815460018181018455600084815260208082209093018490558454848252828601909352604090209190915561074b565b50600061074b565b6000828152600184016020526040812054806117b6575050604080518082018252838152602080820184815286546001818101895560008981528481209551600290930290950191825591519082015586548684528188019092529290912055611155565b828560000160018303815481106117c957fe5b9060005260206000209060020201600101819055506000915050611155565b6001600160a01b038216611843576040805162461bcd60e51b815260206004820181905260248201527f4552433732313a206d696e7420746f20746865207a65726f2061646472657373604482015290519081900360640190fd5b61184c81610e97565b1561189d576040805162461bcd60e51b815260206004820152601c60248201527b115490cdcc8c4e881d1bdad95b88185b1c9958591e481b5a5b9d195960221b604482015290519081900360640190fd5b6118a9600083836106b9565b6001600160a01b03821660009081526002602052604090206118cb90826112a4565b506118d8600382846112b0565b5060405181906001600160a01b03841690600090600080516020611cd0833981519152908290a45050565b3b151590565b606061115284846000858561191d85611903565b61196e576040805162461bcd60e51b815260206004820152601d60248201527f416464726573733a2063616c6c20746f206e6f6e2d636f6e7472616374000000604482015290519081900360640190fd5b600080866001600160a01b031685876040518082805190602001908083835b602083106119ac5780518252601f19909201916020918201910161198d565b6001836020036101000a03801982511681845116808217855250505050505090500191505060006040518083038185875af1925050503d8060008114611a0e576040519150601f19603f3d011682016040523d82523d6000602084013e611a13565b606091505b5091509150611a23828286611a2e565b979650505050505050565b60608315611a3d575081611155565b825115611a4d5782518084602001fd5b60405162461bcd60e51b815260206004820181815284516024840152845185939192839260440191908501908083836000831561145757818101518382015260200161143f56fe456e756d657261626c655365743a20696e646578206f7574206f6620626f756e64734552433732313a207472616e7366657220746f206e6f6e20455243373231526563656976657220696d706c656d656e7465724f776e61626c653a206e6577206f776e657220697320746865207a65726f20616464726573734552433732313a207472616e7366657220746f20746865207a65726f20616464726573734552433732313a206f70657261746f7220717565727920666f72206e6f6e6578697374656e7420746f6b656e4552433732313a20617070726f76652063616c6c6572206973206e6f74206f776e6572206e6f7220617070726f76656420666f7220616c6c4552433732313a2062616c616e636520717565727920666f7220746865207a65726f20616464726573734552433732313a206f776e657220717565727920666f72206e6f6e6578697374656e7420746f6b656e456e756d657261626c654d61703a20696e646578206f7574206f6620626f756e64734552433732313a20617070726f76656420717565727920666f72206e6f6e6578697374656e7420746f6b656e4f776e61626c653a2063616c6c6572206973206e6f7420746865206f776e65728be0079c531659141344cd1fd0a4f28419497f9722a3daafe3b4186f6b6457e04552433732313a207472616e73666572206f6620746f6b656e2074686174206973206e6f74206f776e4552433732314d657461646174613a2055524920717565727920666f72206e6f6e6578697374656e7420746f6b656eddf252ad1be2c89b69c2b068fc378daa952ba7f163c4a11628f55a4df523b3ef4552433732313a20617070726f76616c20746f2063757272656e74206f776e65724552433732313a207472616e736665722063616c6c6572206973206e6f74206f776e6572206e6f7220617070726f766564a26469706673582212204906af39781bb1f28613518e03c124e319e6d2426962f5a78f5929a57bb0a88964736f6c63430007060033",
  "linkReferences": {},
  "deployedLinkReferences": {}
}